{
  "_format": "hh-sol-artifact-1",
  "contractName": "CryptoCakes",
  "sourceName": "contracts/CryptoCakes.sol",
  "abi": [
    {
      "inputs": [
        {
          "internalType": "string",
          "name": "_baseTokenURI",
          "type": "string"
        },
        {
          "internalType": "string",
          "name": "name",
          "type": "string"
        },
        {
          "internalType": "string",
          "name": "symbol",
          "type": "string"
        }
      ],
      "stateMutability": "nonpayable",
      "type": "constructor"
    },
    {
      "anonymous": false,
      "inputs": [
        {
          "indexed": true,
          "internalType": "address",
          "name": "owner",
          "type": "address"
        },
        {
          "indexed": true,
          "internalType": "address",
          "name": "approved",
          "type": "address"
        },
        {
          "indexed": true,
          "internalType": "uint256",
          "name": "tokenId",
          "type": "uint256"
        }
      ],
      "name": "Approval",
      "type": "event"
    },
    {
      "anonymous": false,
      "inputs": [
        {
          "indexed": true,
          "internalType": "address",
          "name": "owner",
          "type": "address"
        },
        {
          "indexed": true,
          "internalType": "address",
          "name": "operator",
          "type": "address"
        },
        {
          "indexed": false,
          "internalType": "bool",
          "name": "approved",
          "type": "bool"
        }
      ],
      "name": "ApprovalForAll",
      "type": "event"
    },
    {
      "anonymous": false,
      "inputs": [
        {
          "indexed": true,
          "internalType": "address",
          "name": "previousOwner",
          "type": "address"
        },
        {
          "indexed": true,
          "internalType": "address",
          "name": "newOwner",
          "type": "address"
        }
      ],
      "name": "OwnershipTransferred",
      "type": "event"
    },
    {
      "anonymous": false,
      "inputs": [
        {
          "indexed": true,
          "internalType": "address",
          "name": "from",
          "type": "address"
        },
        {
          "indexed": true,
          "internalType": "address",
          "name": "to",
          "type": "address"
        },
        {
          "indexed": true,
          "internalType": "uint256",
          "name": "tokenId",
          "type": "uint256"
        }
      ],
      "name": "Transfer",
      "type": "event"
    },
    {
      "inputs": [
        {
          "internalType": "address",
          "name": "to",
          "type": "address"
        },
        {
          "internalType": "uint256",
          "name": "tokenId",
          "type": "uint256"
        }
      ],
      "name": "approve",
      "outputs": [],
      "stateMutability": "nonpayable",
      "type": "function"
    },
    {
      "inputs": [
        {
          "internalType": "address",
          "name": "owner",
          "type": "address"
        }
      ],
      "name": "balanceOf",
      "outputs": [
        {
          "internalType": "uint256",
          "name": "",
          "type": "uint256"
        }
      ],
      "stateMutability": "view",
      "type": "function"
    },
    {
      "inputs": [],
      "name": "baseTokenURI",
      "outputs": [
        {
          "internalType": "string",
          "name": "",
          "type": "string"
        }
      ],
      "stateMutability": "view",
      "type": "function"
    },
    {
      "inputs": [
        {
          "internalType": "uint256",
          "name": "tokenId",
          "type": "uint256"
        }
      ],
      "name": "getApproved",
      "outputs": [
        {
          "internalType": "address",
          "name": "",
          "type": "address"
        }
      ],
      "stateMutability": "view",
      "type": "function"
    },
    {
      "inputs": [
        {
          "internalType": "address",
          "name": "owner",
          "type": "address"
        },
        {
          "internalType": "address",
          "name": "operator",
          "type": "address"
        }
      ],
      "name": "isApprovedForAll",
      "outputs": [
        {
          "internalType": "bool",
          "name": "",
          "type": "bool"
        }
      ],
      "stateMutability": "view",
      "type": "function"
    },
    {
      "inputs": [
        {
          "internalType": "address",
          "name": "recipient",
          "type": "address"
        },
        {
          "internalType": "string",
          "name": "tokenURI",
          "type": "string"
        }
      ],
      "name": "mintNFT",
      "outputs": [
        {
          "internalType": "uint256",
          "name": "",
          "type": "uint256"
        }
      ],
      "stateMutability": "nonpayable",
      "type": "function"
    },
    {
      "inputs": [],
      "name": "name",
      "outputs": [
        {
          "internalType": "string",
          "name": "",
          "type": "string"
        }
      ],
      "stateMutability": "view",
      "type": "function"
    },
    {
      "inputs": [],
      "name": "owner",
      "outputs": [
        {
          "internalType": "address",
          "name": "",
          "type": "address"
        }
      ],
      "stateMutability": "view",
      "type": "function"
    },
    {
      "inputs": [
        {
          "internalType": "uint256",
          "name": "tokenId",
          "type": "uint256"
        }
      ],
      "name": "ownerOf",
      "outputs": [
        {
          "internalType": "address",
          "name": "",
          "type": "address"
        }
      ],
      "stateMutability": "view",
      "type": "function"
    },
    {
      "inputs": [],
      "name": "renounceOwnership",
      "outputs": [],
      "stateMutability": "nonpayable",
      "type": "function"
    },
    {
      "inputs": [
        {
          "internalType": "address",
          "name": "from",
          "type": "address"
        },
        {
          "internalType": "address",
          "name": "to",
          "type": "address"
        },
        {
          "internalType": "uint256",
          "name": "tokenId",
          "type": "uint256"
        }
      ],
      "name": "safeTransferFrom",
      "outputs": [],
      "stateMutability": "nonpayable",
      "type": "function"
    },
    {
      "inputs": [
        {
          "internalType": "address",
          "name": "from",
          "type": "address"
        },
        {
          "internalType": "address",
          "name": "to",
          "type": "address"
        },
        {
          "internalType": "uint256",
          "name": "tokenId",
          "type": "uint256"
        },
        {
          "internalType": "bytes",
          "name": "_data",
          "type": "bytes"
        }
      ],
      "name": "safeTransferFrom",
      "outputs": [],
      "stateMutability": "nonpayable",
      "type": "function"
    },
    {
      "inputs": [
        {
          "internalType": "address",
          "name": "operator",
          "type": "address"
        },
        {
          "internalType": "bool",
          "name": "approved",
          "type": "bool"
        }
      ],
      "name": "setApprovalForAll",
      "outputs": [],
      "stateMutability": "nonpayable",
      "type": "function"
    },
    {
      "inputs": [
        {
          "internalType": "bytes4",
          "name": "interfaceId",
          "type": "bytes4"
        }
      ],
      "name": "supportsInterface",
      "outputs": [
        {
          "internalType": "bool",
          "name": "",
          "type": "bool"
        }
      ],
      "stateMutability": "view",
      "type": "function"
    },
    {
      "inputs": [],
      "name": "symbol",
      "outputs": [
        {
          "internalType": "string",
          "name": "",
          "type": "string"
        }
      ],
      "stateMutability": "view",
      "type": "function"
    },
    {
      "inputs": [
        {
          "internalType": "uint256",
          "name": "tokenId",
          "type": "uint256"
        }
      ],
      "name": "tokenURI",
      "outputs": [
        {
          "internalType": "string",
          "name": "",
          "type": "string"
        }
      ],
      "stateMutability": "view",
      "type": "function"
    },
    {
      "inputs": [
        {
          "internalType": "address",
          "name": "from",
          "type": "address"
        },
        {
          "internalType": "address",
          "name": "to",
          "type": "address"
        },
        {
          "internalType": "uint256",
          "name": "tokenId",
          "type": "uint256"
        }
      ],
      "name": "transferFrom",
      "outputs": [],
      "stateMutability": "nonpayable",
      "type": "function"
    },
    {
      "inputs": [
        {
          "internalType": "address",
          "name": "newOwner",
          "type": "address"
        }
      ],
      "name": "transferOwnership",
      "outputs": [],
      "stateMutability": "nonpayable",
      "type": "function"
    }
  ],
  "bytecode": "0x60806040523480156200001157600080fd5b5060405162001d4138038062001d41833981016040819052620000349162000252565b8151829082906200004d906000906020850190620000f5565b50805162000063906001906020840190620000f5565b505050620000806200007a6200009f60201b60201c565b620000a3565b825162000095906009906020860190620000f5565b5050505062000336565b3390565b600780546001600160a01b038381166001600160a01b0319831681179093556040519116919082907f8be0079c531659141344cd1fd0a4f28419497f9722a3daafe3b4186f6b6457e090600090a35050565b8280546200010390620002e3565b90600052602060002090601f01602090048101928262000127576000855562000172565b82601f106200014257805160ff191683800117855562000172565b8280016001018555821562000172579182015b828111156200017257825182559160200191906001019062000155565b506200018092915062000184565b5090565b5b8082111562000180576000815560010162000185565b600082601f830112620001ad57600080fd5b81516001600160401b0380821115620001ca57620001ca62000320565b604051601f8301601f19908116603f01168101908282118183101715620001f557620001f562000320565b816040528381526020925086838588010111156200021257600080fd5b600091505b8382101562000236578582018301518183018401529082019062000217565b83821115620002485760008385830101525b9695505050505050565b6000806000606084860312156200026857600080fd5b83516001600160401b03808211156200028057600080fd5b6200028e878388016200019b565b94506020860151915080821115620002a557600080fd5b620002b3878388016200019b565b93506040860151915080821115620002ca57600080fd5b50620002d9868287016200019b565b9150509250925092565b600181811c90821680620002f857607f821691505b602082108114156200031a57634e487b7160e01b600052602260045260246000fd5b50919050565b634e487b7160e01b600052604160045260246000fd5b6119fb80620003466000396000f3fe608060405234801561001057600080fd5b50600436106101165760003560e01c80638da5cb5b116100a2578063c87b56dd11610071578063c87b56dd14610239578063d547cfb71461024c578063e985e9c514610254578063eacabe1414610290578063f2fde38b146102a357600080fd5b80638da5cb5b146101fa57806395d89b411461020b578063a22cb46514610213578063b88d4fde1461022657600080fd5b806323b872dd116100e957806323b872dd1461019857806342842e0e146101ab5780636352211e146101be57806370a08231146101d1578063715018a6146101f257600080fd5b806301ffc9a71461011b57806306fdde0314610143578063081812fc14610158578063095ea7b314610183575b600080fd5b61012e6101293660046116a8565b6102b6565b60405190151581526020015b60405180910390f35b61014b610308565b60405161013a9190611793565b61016b6101663660046116e2565b61039a565b6040516001600160a01b03909116815260200161013a565b61019661019136600461167e565b610427565b005b6101966101a6366004611528565b61053d565b6101966101b9366004611528565b61056e565b61016b6101cc3660046116e2565b610589565b6101e46101df3660046114da565b610600565b60405190815260200161013a565b610196610687565b6007546001600160a01b031661016b565b61014b6106bd565b6101966102213660046115e0565b6106cc565b610196610234366004611564565b6106db565b61014b6102473660046116e2565b610713565b61014b61088a565b61012e6102623660046114f5565b6001600160a01b03918216600090815260056020908152604080832093909416825291909152205460ff1690565b6101e461029e36600461161c565b610918565b6101966102b13660046114da565b6109ab565b60006001600160e01b031982166380ac58cd60e01b14806102e757506001600160e01b03198216635b5e139f60e01b145b8061030257506301ffc9a760e01b6001600160e01b03198316145b92915050565b606060008054610317906118ed565b80601f0160208091040260200160405190810160405280929190818152602001828054610343906118ed565b80156103905780601f1061036557610100808354040283529160200191610390565b820191906000526020600020905b81548152906001019060200180831161037357829003601f168201915b5050505050905090565b60006103a582610a46565b61040b5760405162461bcd60e51b815260206004820152602c60248201527f4552433732313a20617070726f76656420717565727920666f72206e6f6e657860448201526b34b9ba32b73a103a37b5b2b760a11b60648201526084015b60405180910390fd5b506000908152600460205260409020546001600160a01b031690565b600061043282610589565b9050806001600160a01b0316836001600160a01b031614156104a05760405162461bcd60e51b815260206004820152602160248201527f4552433732313a20617070726f76616c20746f2063757272656e74206f776e656044820152603960f91b6064820152608401610402565b336001600160a01b03821614806104bc57506104bc8133610262565b61052e5760405162461bcd60e51b815260206004820152603860248201527f4552433732313a20617070726f76652063616c6c6572206973206e6f74206f7760448201527f6e6572206e6f7220617070726f76656420666f7220616c6c00000000000000006064820152608401610402565b6105388383610a63565b505050565b6105473382610ad1565b6105635760405162461bcd60e51b81526004016104029061182d565b610538838383610bb7565b610538838383604051806020016040528060008152506106db565b6000818152600260205260408120546001600160a01b0316806103025760405162461bcd60e51b815260206004820152602960248201527f4552433732313a206f776e657220717565727920666f72206e6f6e657869737460448201526832b73a103a37b5b2b760b91b6064820152608401610402565b60006001600160a01b03821661066b5760405162461bcd60e51b815260206004820152602a60248201527f4552433732313a2062616c616e636520717565727920666f7220746865207a65604482015269726f206164647265737360b01b6064820152608401610402565b506001600160a01b031660009081526003602052604090205490565b6007546001600160a01b031633146106b15760405162461bcd60e51b8152600401610402906117f8565b6106bb6000610d57565b565b606060018054610317906118ed565b6106d7338383610da9565b5050565b6106e53383610ad1565b6107015760405162461bcd60e51b81526004016104029061182d565b61070d84848484610e78565b50505050565b606061071e82610a46565b6107845760405162461bcd60e51b815260206004820152603160248201527f45524337323155524953746f726167653a2055524920717565727920666f72206044820152703737b732bc34b9ba32b73a103a37b5b2b760791b6064820152608401610402565b6000828152600660205260408120805461079d906118ed565b80601f01602080910402602001604051908101604052809291908181526020018280546107c9906118ed565b80156108165780601f106107eb57610100808354040283529160200191610816565b820191906000526020600020905b8154815290600101906020018083116107f957829003601f168201915b50505050509050600061083460408051602081019091526000815290565b9050805160001415610847575092915050565b815115610879578082604051602001610861929190611727565b60405160208183030381529060405292505050919050565b61088284610eab565b949350505050565b60098054610897906118ed565b80601f01602080910402602001604051908101604052809291908181526020018280546108c3906118ed565b80156109105780601f106108e557610100808354040283529160200191610910565b820191906000526020600020905b8154815290600101906020018083116108f357829003601f168201915b505050505081565b6007546000906001600160a01b031633146109455760405162461bcd60e51b8152600401610402906117f8565b610953600880546001019055565b600061095e60085490565b905061096a8482610f82565b61097481846110b5565b6109a46040518060400160405280600f81526020016e13995dc81b999d0818dc99585d1959608a1b815250611140565b9392505050565b6007546001600160a01b031633146109d55760405162461bcd60e51b8152600401610402906117f8565b6001600160a01b038116610a3a5760405162461bcd60e51b815260206004820152602660248201527f4f776e61626c653a206e6577206f776e657220697320746865207a65726f206160448201526564647265737360d01b6064820152608401610402565b610a4381610d57565b50565b6000908152600260205260409020546001600160a01b0316151590565b600081815260046020526040902080546001600160a01b0319166001600160a01b0384169081179091558190610a9882610589565b6001600160a01b03167f8c5be1e5ebec7d5bd14f71427d1e84f3dd0314c0f7b2291e5b200ac8c7c3b92560405160405180910390a45050565b6000610adc82610a46565b610b3d5760405162461bcd60e51b815260206004820152602c60248201527f4552433732313a206f70657261746f7220717565727920666f72206e6f6e657860448201526b34b9ba32b73a103a37b5b2b760a11b6064820152608401610402565b6000610b4883610589565b9050806001600160a01b0316846001600160a01b03161480610b835750836001600160a01b0316610b788461039a565b6001600160a01b0316145b8061088257506001600160a01b0380821660009081526005602090815260408083209388168352929052205460ff16610882565b826001600160a01b0316610bca82610589565b6001600160a01b031614610c325760405162461bcd60e51b815260206004820152602960248201527f4552433732313a207472616e73666572206f6620746f6b656e2074686174206960448201526839903737ba1037bbb760b91b6064820152608401610402565b6001600160a01b038216610c945760405162461bcd60e51b8152602060048201526024808201527f4552433732313a207472616e7366657220746f20746865207a65726f206164646044820152637265737360e01b6064820152608401610402565b610c9f600082610a63565b6001600160a01b0383166000908152600360205260408120805460019290610cc89084906118aa565b90915550506001600160a01b0382166000908152600360205260408120805460019290610cf690849061187e565b909155505060008181526002602052604080822080546001600160a01b0319166001600160a01b0386811691821790925591518493918716917fddf252ad1be2c89b69c2b068fc378daa952ba7f163c4a11628f55a4df523b3ef91a4505050565b600780546001600160a01b038381166001600160a01b0319831681179093556040519116919082907f8be0079c531659141344cd1fd0a4f28419497f9722a3daafe3b4186f6b6457e090600090a35050565b816001600160a01b0316836001600160a01b03161415610e0b5760405162461bcd60e51b815260206004820152601960248201527f4552433732313a20617070726f766520746f2063616c6c6572000000000000006044820152606401610402565b6001600160a01b03838116600081815260056020908152604080832094871680845294825291829020805460ff191686151590811790915591519182527f17307eab39ab6107e8899845ad3d59bd9653f200f220920489ca2b5937696c31910160405180910390a3505050565b610e83848484610bb7565b610e8f84848484611183565b61070d5760405162461bcd60e51b8152600401610402906117a6565b6060610eb682610a46565b610f1a5760405162461bcd60e51b815260206004820152602f60248201527f4552433732314d657461646174613a2055524920717565727920666f72206e6f60448201526e3732bc34b9ba32b73a103a37b5b2b760891b6064820152608401610402565b6000610f3160408051602081019091526000815290565b90506000815111610f5157604051806020016040528060008152506109a4565b80610f5b84611290565b604051602001610f6c929190611727565b6040516020818303038152906040529392505050565b6001600160a01b038216610fd85760405162461bcd60e51b815260206004820181905260248201527f4552433732313a206d696e7420746f20746865207a65726f20616464726573736044820152606401610402565b610fe181610a46565b1561102e5760405162461bcd60e51b815260206004820152601c60248201527f4552433732313a20746f6b656e20616c7265616479206d696e746564000000006044820152606401610402565b6001600160a01b038216600090815260036020526040812080546001929061105790849061187e565b909155505060008181526002602052604080822080546001600160a01b0319166001600160a01b03861690811790915590518392907fddf252ad1be2c89b69c2b068fc378daa952ba7f163c4a11628f55a4df523b3ef908290a45050565b6110be82610a46565b6111215760405162461bcd60e51b815260206004820152602e60248201527f45524337323155524953746f726167653a2055524920736574206f66206e6f6e60448201526d32bc34b9ba32b73a103a37b5b2b760911b6064820152608401610402565b60008281526006602090815260409091208251610538928401906113af565b610a43816040516024016111549190611793565b60408051601f198184030181529190526020810180516001600160e01b031663104c13eb60e21b17905261138e565b60006001600160a01b0384163b1561128557604051630a85bd0160e11b81526001600160a01b0385169063150b7a02906111c7903390899088908890600401611756565b602060405180830381600087803b1580156111e157600080fd5b505af1925050508015611211575060408051601f3d908101601f1916820190925261120e918101906116c5565b60015b61126b573d80801561123f576040519150601f19603f3d011682016040523d82523d6000602084013e611244565b606091505b5080516112635760405162461bcd60e51b8152600401610402906117a6565b805181602001fd5b6001600160e01b031916630a85bd0160e11b149050610882565b506001949350505050565b6060816112b45750506040805180820190915260018152600360fc1b602082015290565b8160005b81156112de57806112c881611928565b91506112d79050600a83611896565b91506112b8565b60008167ffffffffffffffff8111156112f9576112f9611999565b6040519080825280601f01601f191660200182016040528015611323576020820181803683370190505b5090505b8415610882576113386001836118aa565b9150611345600a86611943565b61135090603061187e565b60f81b81838151811061136557611365611983565b60200101906001600160f81b031916908160001a905350611387600a86611896565b9450611327565b80516a636f6e736f6c652e6c6f67602083016000808483855afa5050505050565b8280546113bb906118ed565b90600052602060002090601f0160209004810192826113dd5760008555611423565b82601f106113f657805160ff1916838001178555611423565b82800160010185558215611423579182015b82811115611423578251825591602001919060010190611408565b5061142f929150611433565b5090565b5b8082111561142f5760008155600101611434565b600067ffffffffffffffff8084111561146357611463611999565b604051601f8501601f19908116603f0116810190828211818310171561148b5761148b611999565b816040528093508581528686860111156114a457600080fd5b858560208301376000602087830101525050509392505050565b80356001600160a01b03811681146114d557600080fd5b919050565b6000602082840312156114ec57600080fd5b6109a4826114be565b6000806040838503121561150857600080fd5b611511836114be565b915061151f602084016114be565b90509250929050565b60008060006060848603121561153d57600080fd5b611546846114be565b9250611554602085016114be565b9150604084013590509250925092565b6000806000806080858703121561157a57600080fd5b611583856114be565b9350611591602086016114be565b925060408501359150606085013567ffffffffffffffff8111156115b457600080fd5b8501601f810187136115c557600080fd5b6115d487823560208401611448565b91505092959194509250565b600080604083850312156115f357600080fd5b6115fc836114be565b91506020830135801515811461161157600080fd5b809150509250929050565b6000806040838503121561162f57600080fd5b611638836114be565b9150602083013567ffffffffffffffff81111561165457600080fd5b8301601f8101851361166557600080fd5b61167485823560208401611448565b9150509250929050565b6000806040838503121561169157600080fd5b61169a836114be565b946020939093013593505050565b6000602082840312156116ba57600080fd5b81356109a4816119af565b6000602082840312156116d757600080fd5b81516109a4816119af565b6000602082840312156116f457600080fd5b5035919050565b600081518084526117138160208601602086016118c1565b601f01601f19169290920160200192915050565b600083516117398184602088016118c1565b83519083019061174d8183602088016118c1565b01949350505050565b6001600160a01b0385811682528416602082015260408101839052608060608201819052600090611789908301846116fb565b9695505050505050565b6020815260006109a460208301846116fb565b60208082526032908201527f4552433732313a207472616e7366657220746f206e6f6e20455243373231526560408201527131b2b4bb32b91034b6b83632b6b2b73a32b960711b606082015260800190565b6020808252818101527f4f776e61626c653a2063616c6c6572206973206e6f7420746865206f776e6572604082015260600190565b60208082526031908201527f4552433732313a207472616e736665722063616c6c6572206973206e6f74206f6040820152701ddb995c881b9bdc88185c1c1c9bdd9959607a1b606082015260800190565b6000821982111561189157611891611957565b500190565b6000826118a5576118a561196d565b500490565b6000828210156118bc576118bc611957565b500390565b60005b838110156118dc5781810151838201526020016118c4565b8381111561070d5750506000910152565b600181811c9082168061190157607f821691505b6020821081141561192257634e487b7160e01b600052602260045260246000fd5b50919050565b600060001982141561193c5761193c611957565b5060010190565b6000826119525761195261196d565b500690565b634e487b7160e01b600052601160045260246000fd5b634e487b7160e01b600052601260045260246000fd5b634e487b7160e01b600052603260045260246000fd5b634e487b7160e01b600052604160045260246000fd5b6001600160e01b031981168114610a4357600080fdfea264697066735822122052037995d121c90acb7ee78d9b4108387d1d0ce8f858ffc140b459603eda568264736f6c63430008070033",
  "linkReferences": {},
  "deployedLinkReferences": {}
}